:1000000000200010C1000000D1000000D30000005B
:1000100000000000000000000000000000000000E0
:10002000000000000000000000000000D5000000FB
:100030000000000000000000D700000029080000B8
:10004000DB000000DB000000DB000000DB00000044
:10005000DB000000DB000000DB000000DB00000034
:10006000DB000000DB000000DB000000DB00000024
:10007000DB00000039080000DB000000FF0B00007F
:10008000DB000000DB000000DB000000DB00000004
:10009000DB000000DB0000000000000000000000AA
:1000A000DB000000DB000000DB00000000000000BF
:1000B000DB000000DB000000DB000000DB000000D4
:1000C0000148804701480047490D0000190C000015
:1000D000FEE7FEE7FEE7FEE7FEE7FEE70268034B0A
:1000E00009061340194301607047C046FFFFFFF83F
:1000F00038B5041C10200D1C00F0EAFA8021104ACB
:100100008901D36F0B43D36700230E4AE3602A6053
:100110002B716B7100F0C0F807232D7940001D4052
:1001200080236D049B031D43074B0849C01800F052
:1001300051FE0138C0B200022843206038BDC046DD
:1001400004800440801A0600802343000047860094
:10015000043189000B580020834203DA1B049B0DF5
:10016000138001307047012A0ED0002A07D0022ADE
:1001700011D1006B000C411E8841C0B20CE0006B35
:100180000123C840184007E0006B0831C9B2C840DD
:100190000240D0B200E000207047000008B50129FD
:1001A0000AD9002A04D0802203681205134302E012
:1001B0000268034B13400360FFF790FF08BDC04681
:1001C000FFFFFFF7012A04D18A4003681A43026047
:1001D00008E00268044B134001228A400360036870
:1001E000934303607047C046FFFFFFF808B500F077
:1001F00053F8014B186008BD1C01001008B5074BEF
:10020000596A1F23CA05120F1940054B920001318C
:100210004900D05800F0DEFD08BDC0460080044013
:10022000DC1D0000064B1A6C0323134005D0002090
:10023000012B03D1034B186800E003487047C04608
:1002400000800440301E0000001BB700044B10B5B6
:100250009C68FFF7E7FF1F2323400133584310BD7D
:100260000080044008B50A4B1A6F03231340022B89
:1002700006D0032B07D0012B08D1FFF7D3FF06E0F0
:10028000FFF7BCFF03E0FFF7E1FF00E0014808BD16
:1002900000800440001BB70008B5FFF7E3FF024BE6
:1002A000996F00F097FD08BD008004404021024A8C
:1002B000D36F0B43D36770470480044010B580248C
:1002C000090424024118002B06D001209040021C92
:1002D0000B591A430A5104E0012090400B59834303
:1002E0000B5110BD012904D1024B1A69137D042B57
:1002F000FCD0704700010010F823426810B513408D
:10030000282B27D00CDC102B1CD004DC002B49D070
:10031000082B17D04AE0182B1CD0202B40D045E0EA
:10032000402B36D006DC302B3AD0382B3ED102237E
:100330000B753BE0502B22D02C22582B20D0482B81
:1003400034D12DE08A6853425A410B785B00134345
:1003500083602BE08B68002B09D10B69002B01D146
:10036000113B01E021235B423C221A401FE04A6816
:10037000013B541C4C60127882608B6016E03C227A
:10038000CB685C1CCC6084681C700B69013B0B6102
:1003900000E03C220B69012B09DD04239A4306E0AF
:1003A000012300E003230B752C2200E03C223C23B8
:1003B0005340036082610B7DD20602D50120022BDF
:1003C00003D10020042B00D1087510BDF82342682A
:1003D00030B51340702B0BD004DC602B08D0682B99
:1003E00037D105E0A82B03D0B02B01D0782B30D12A
:1003F0008368D9B200234A089A422BD00124C268EC
:10040000036B4A402343DBB2D2B29A43231C002A37
:1004100020D0026A456B4A402B43DBB2D2B29A43EA
:100420000223002A16D0426A836B4A402343DBB280
:10043000D2B29A430323002A0CD0826AC36B1C43B6
:100440000B1C5340E4B2DBB2A343584243419B0030
:1004500000E00023181C30BD042342680B75F43300
:100460001340902B20D00EDC702B29D004DC602BA5
:1004700026D0682B24D044E0802B15D0882B38D090
:10048000782B3ED11CE0B02B23D006DCA02B30D043
:10049000A82B1ED0982B34D12BE0C02B29D0C82BF1
:1004A00027D0B82B19D02CE0CB685A1CCA608268C0
:1004B0001A700B690522013B0B61012B24DC21E042
:1004C0000122836893430B700B69934219DD00226C
:1004D0001AE00122836893430B704B685A1C4A60F0
:1004E0001B78062283608B68013B8B60002B0BDC42
:1004F00008E000230B750B780222DB0704D51823D4
:1005000003E000223C2300E038233C2159400160F5
:100510008361101C7047000005220A4B80211A716C
:10052000094A20209A600022DA601A615A619A61B1
:10053000064AC9051960D36F0343D3676C238B61E7
:100540007047C04600010010E5020000048004402E
:1005500008B5064B186800F03DFC054B42081B68C7
:100560001A611A69801A586108BDC0461C01001042
:1005700000010010044B1A69002A00D199609B68A1
:10058000581A4142484170470001001070B5154C9F
:100590000D1CA3680321061C984704232B7563696F
:1005A0002561002B04D13C2223689A6124321A6011
:1005B000A368301C012198470023236123681A682F
:1005C000D206FCD4FF22A1691202114203D03822C4
:1005D0009A610C321A60301CA36804219847287D68
:1005E00070BDC0460001001030B587B01C1C6B46C2
:1005F00019700023051C019202940493281C69467B
:10060000FFF7C4FF0228F9D00298201A07B030BDC6
:1006100030B587B01C1C6B4619700023051C039273
:1006200004940293281C6946FFF7B0FF0228F9D012
:100630000498201A07B030BD054B5F211B685A682B
:10064000F82313400022D80F994250417047C0460A
:100650000001001038B5064C051C21692068FFF721
:100660004BFE002803D1A368281C0221984738BDFF
:100670000001001070B5144C051C6369002B0CD1EF
:100680002068FFF7A3FE05236B43104A1818C0002B
:100690008358101863614368E36022696669531EDA
:1006A0009A413378206813433370311CFFF7D4FE2E
:1006B000002807D0337D002B00D16361C1B2E3680D
:1006C000281C984770BDC046000100102001001092
:1006D0008E21FF2210B5054C89006358134002405B
:1006E0009343ED2212021343635010BD0080044077
:1006F00010B58024074B6401191DCA6F983322433B
:10070000CA6701221A6007238360043BC3600D336C
:10071000836210BD00800440002310B5934206DAC6
:100720004469A40603D5CC5C01330460F6E7181CC9
:1007300010BDF8B5071C0E1C141C0025002C08DD8C
:10074000311C221C381CFFF7E7FF241A2D1836181D
:10075000F4E7281CF8BD002310B5934206DA44697B
:10076000E40703D50468CC540133F6E7181C10BD28
:1007700070B50E1C041CFFF775FD3101051C00F05F
:1007800029FB8022011CE3680E1C1343E360FF2356
:10079000000A1E40034026606360E368281C934300
:1007A000E36000F017FB70BD814206D90B78027838
:1007B00001394A7003700130F6E77047131CF0B539
:1007C000023B85B0041C0F1C01920D1C0E2B24D87B
:1007D000002302930A2A03D1C317C41802905C4075
:1007E0003E1C201C019900F085FB01990390201C00
:1007F00000F066FC0B4B039C5B5C751C3370002C9B
:1008000001D02E1CEDE7029B002B02DA2D23B51C34
:100810007370691E381CFFF7C7FF0023381C2B704C
:1008200005B0F0BD1C1E0000024A136801331360BE
:100830007047C0469C01001008B5034B1B689B68BD
:100840005B68984708BDC046F81FFF1F10B500241D
:100850000C4B1C60FFF7CAFCFA210B4B890018688F
:1008600000F0B8FA094A01385060C0200849000673
:100870000B6A1B021B0A03430B6207239460201CB4
:10088000136010BD9C0100101C01001010E000E07E
:1008900000ED00E010B5A024E405201CFFF706FDE4
:1008A000201C022105220123FFF708FD10BD0000D6
:1008B00038B50B4B0122191C051C0A4CA833A43176
:1008C0000A60201C1A60FFF713FF291C201CFFF789
:1008D0004FFF0323E3607E33A360013B236338BDF6
:1008E000004004400080004010B5041C01F042FAB2
:1008F000211C021C0148FFF71CFF10BD00800040B6
:1009000008B5FFF7F1FF0248FFF7EEFF08BDC0464C
:10091000341E000038B50B1C074C151C211C1A1C7A
:10092000FFF74CFF201CFFF7DFFF002D02D003482C
:10093000FFF7DAFF38BDC04650010010341E00003A
:1009400008B5031C0A1C0248191CFFF7F2FE08BD7B
:100950000080004008B5031C0A1C0348191CFFF75F
:10096000FAFE40B208BDC0460080004002210120CE
:1009700008B50E4B5A688A435A605A680A435A604F
:100980000B4A106350635A6800200A435A60FFF70D
:10099000C3FD00200749FFF7DBFD00200649FFF7F4
:1009A000E9FD8022054B12021A6008BD0080044058
:1009B00000400440A0860100E502000000E100E0E4
:1009C00038B50124064B074D1C60281C0649FFF76B
:1009D0008FFB281C0521221CFFF7F4FB38BDC04605
:1009E0009440044000C001404801001010B50B4A7B
:1009F000072802D13023137002E01023184310702F
:100A0000212101230020FFF7EFFD054C2121221CAD
:100A100001230020FFF7FCFD207810BDA00100108D
:100A2000A101001013B56B46DA1D45232521137073
:100A30000020443BFFF7D8FD044C2521221C012354
:100A40000020FFF7E5FD207816BDC046A10100108B
:100A5000011CF8B52025294E10312943071CC9B2C5
:100A60000020321C0123FFF7D3FD3478002F10D172
:100A70000123381C3B21321CFFF7CAFD02233078CA
:100A80001840C0002043C3B22B4235D0E0201843A9
:100A900032E00020022F08D801233721321CFFF753
:100AA000B7FD3378012F0FD107E03B21321C012322
:100AB000FFF7AEFD032F04D133787F229343DB1081
:100AC0000CE0042F04D133781D406D102C430EE050
:100AD000052F05D10823327813405B001C4306E044
:100AE000062F04D1022332781340DB00F6E7E0B290
:100AF000E30601D5F020204340B2F8BDA10100106B
:100B0000031C202170B51033234D1943061CC9B2B4
:100B100000202A1C0123FFF77BFD2C78002E06D134
:100B2000301C3B212A1C0123FFF772FD28E0002026
:100B3000022E0AD82A1C01233721FFF769FD2B78E2
:100B40004022012E0AD010220FE03B212A1C012353
:100B5000FFF75EFD032E04D140232A7813409B103B
:100B600012E0042E03D110232A7813400CE0052E46
:100B700004D104232A7813409B0005E0062E04D1FB
:100B800001232A7813401B011C43E0B2E30601D580
:100B9000F020204340B270BDA101001038B5002400
:100BA000851C0134E4B2201CFFF720FF0A48012114
:100BB0000022FFF7F3FA084805210022FFF7D3FAD5
:100BC0000028F8D02A1C04480521FFF7C1FA023595
:100BD000072CE6D138BDC04600C00140F8B5071C5F
:100BE0000E1C0024E5B2281CFFF78AFF3855281C8C
:100BF000FFF72EFF30550134072CF3D1F8BD08B5AF
:100C00000020FFF719FD002803D00020FFF722FD88
:100C100001E0FFF72FFD08BDF7B5E1200002FFF767
:100C200047FE3748FFF76CFEFFF710FE002803D0A1
:100C30003448FFF765FEFEE7FFF72CFE2022324B1B
:100C4000DA67FFF793FEFFF7BBFEFFF7EBFE2F48D7
:100C50002F49FFF7C3FFFA232E4C9B002360236824
:100C60002D4D2B602D4A23689B182A689A420BD37E
:100C70002B4E0821301CFFF76DFEC1B20029F1D0C8
:100C8000301CFFF75DFEEDE70126264F2368381C78
:100C90002B60FFF783FF2448FFF726FE20680A2118
:100CA0000022FFF737FE2148FFF72AFE1F4B019372
:100CB0001F48FFF719FE0022301C0A21FFF72AFE09
:100CC0001C48FFF711FE7300F85A00F0F9FF1A4AAA
:100CD0001A4B00F025FD0022194B00F021FD194BA5
:100CE000002200F0F9F900F0B5FF0A210022FFF719
:100CF00011FE01360198FFF703FE072ED8D1B7E7A2
:100D0000371E0000421E0000040002509401001033
:100D1000700100109C0100108001001018FCFFFF02
:100D20007701001084010010611E00006D1E00009C
:100D30006F1E00006A1E00006666666666660A40F0
:100D400000408F4000F88F408E2120201E4B8900EC
:100D50005A5810B582435A5000221A62C832C0460F
:100D6000013A002AFBD101211A6459645A6459647A
:100D7000596C154AC907FBD561218E2080249160EA
:100D800080001158A14311500121D8680E4A084231
:100D9000FAD0002011675167506751670120596FE1
:100DA000094A0142FAD08E2380249B00D158E400E6
:100DB00021438024D150D15864002143D150906701
:100DC000024B034ADA6710BD0080044004800440EF
:100DD0005F000100002243088B4274D303098B4259
:100DE0005FD3030A8B4244D3030B8B4228D3030CFB
:100DF0008B420DD3FF22090212BA030C8B4202D39D
:100E00001212090265D0030B8B4219D300E0090AC4
:100E1000C30B8B4201D3CB03C01A5241830B8B42CD
:100E200001D38B03C01A5241430B8B4201D34B03B6
:100E3000C01A5241030B8B4201D30B03C01A52411B
:100E4000C30A8B4201D3CB02C01A5241830A8B42A0
:100E500001D38B02C01A5241430A8B4201D34B0289
:100E6000C01A5241030A8B4201D30B02C01A5241ED
:100E7000CDD2C3098B4201D3CB01C01A52418309A1
:100E80008B4201D38B01C01A524143098B4201D3DB
:100E90004B01C01A524103098B4201D30B01C01A06
:100EA0005241C3088B4201D3CB00C01A5241830880
:100EB0008B4201D38B00C01A524143088B4201D3AD
:100EC0004B00C01A5241411A00D20146524110460D
:100ED0007047FFE701B5002000F0FCF802BDC046F6
:100EE0000029F7D003B5FFF775FF0EBC4243891AFE
:100EF0001847C04603460B437FD4002243088B4269
:100F000074D303098B425FD3030A8B4244D3030B90
:100F10008B4228D3030C8B420DD3FF22090212BA55
:100F2000030C8B4202D31212090265D0030B8B42D1
:100F300019D300E0090AC30B8B4201D3CB03C01ABB
:100F40005241830B8B4201D38B03C01A5241430B96
:100F50008B4201D34B03C01A5241030B8B4201D386
:100F60000B03C01A5241C30A8B4201D3CB02C01AF1
:100F70005241830A8B4201D38B02C01A5241430A69
:100F80008B4201D34B02C01A5241030A8B4201D358
:100F90000B02C01A5241CDD2C3098B4201D3CB01FF
:100FA000C01A524183098B4201D38B01C01A5241AE
:100FB00043098B4201D34B01C01A524103098B42B2
:100FC00001D30B01C01A5241C3088B4201D3CB009D
:100FD000C01A524183088B4201D38B00C01A524180
:100FE00043088B4201D34B00C01A5241411A00D230
:100FF00001465241104670475DE0CA0F00D0494299
:10100000031000D34042534000229C4603098B4208
:101010002DD3030A8B4212D3FC22890112BA030A90
:101020008B420CD3890192118B4208D38901921112
:101030008B4204D389013AD0921100E08909C30997
:101040008B4201D3CB01C01A524183098B4201D399
:101050008B01C01A524143098B4201D34B01C01A84
:10106000524103098B4201D30B01C01A5241C308FC
:101070008B4201D3CB00C01A524183088B4201D36B
:101080008B00C01A5241D9D243088B4201D34B0086
:10109000C01A5241411A00D20146634652415B10C8
:1010A000104601D34042002B00D5494270476346A9
:1010B0005B1000D3404201B5002000F00BF802BDE8
:1010C0000029F8D003B5FFF715FF0EBC4243891A7B
:1010D0001847C0467047C046F0B55F4656464D4675
:1010E0004446F0B40F0387B098464D003B0BCC0F3D
:1010F000061C924681469B466D0D01946BD0664B53
:101100009D4235D080275B467F031F43F3009946FD
:10111000624BFF00400F9C4607430023BB4600265E
:1011200065440093424617035000D20F53463F0BCD
:10113000400D904600D172E0574A904267D080231C
:101140005B031F435346554A5B0FFF001F43944602
:1011500053460021DB0060444246624092462D1A0D
:101160000E430F2E00D9A1E04D48B60080598746A6
:101170005B461E4300D076E000239B46994602332F
:1011800008260093CEE799464346BB46019300915B
:10119000009B022B6BD1019B9A46002153460122F2
:1011A000002789461A403C4B00213F030C0D2405C3
:1011B0003F0B27433B4C1B0527401F437F00D207B3
:1011C0007F0817434846391C07B03CBC90469946F7
:1011D000A246AB46F0BD03433ED05B46002B00D198
:1011E0009CE1584600F0A8FD2823311C1B1A021C64
:1011F0005F46D940083A97400B1C96403B439B46BC
:10120000B1460023284D00262D1A00938AE7524646
:1012100003213A43A0D10027002302219CE7524634
:101220003A4315D0002F00D185E1381C00F084FD31
:10123000021C28215046891A131CC8405146083BFD
:1012400099409F400B1C074317480021801A83E7F1
:101250000027002301217FE700239B4699460133A5
:10126000042600935EE703230C2600935AE7032B22
:1012700000D13CE2012B00D0BFE11A1C019B1A40B7
:1012800000210023002789468EE700238027994606
:1012900000223F03004B87E7FF07000001FCFFFF30
:1012A000801E0000FFFF0F800DFCFFFFBB4500D933
:1012B00051E100D14CE14A46039200225C4690463F
:1012C000013D180E3F0238431B020193030C99465F
:1012D00003041B0C4946061C201C1F1C0093FFF72F
:1012E00079FD021C7A4302904946201C171CFFF727
:1012F000F7FD039B09041B0C19438F420CD9029B79
:101300008919013B8E4200D952E18F4200D84FE14A
:10131000029B8919023B0293CC1B201C4946FFF714
:1013200059FD009F834647434946201CFFF7D8FDDF
:10133000039A0B041404240C23439F420DD95A46EC
:101340009B19013A9E4200D930E19F4200D82DE11D
:101350000222524294469B19E344029ADB1B170473
:101360005A463A439346019C170C220C101C0492D7
:101370005A4611042204120C141C090C7C430592D9
:101380004A43414347436118100C09188C4203D962
:1013900080204002844667440C0C12040804120C9E
:1013A0003C198118A34200D2E5E000D1DFE01F1B09
:1013B00043465C1AA04592415242BF1AB74200D13F
:1013C0000EE1381C4946FFF705FD009B02904343A0
:1013D0004946381C9846FFF783FD230C0F041F4332
:1013E000B8450CD9029BBF19013BBE4200D9FBE0B6
:1013F000B84500D8F8E0029BBF19023B0293434670
:10140000FF1A4946381CFFF7E5FC009B0390434355
:101410004946381C9846FFF763FD24040904240C50
:10142000214388450CD9039B8919013B8E4200D981
:10143000DCE0884500D8D9E0039B8919023B03937F
:101440004346C91A029B039A1B04059C1A43100CBD
:1014500013049146221C049F1B0C5A4344437B43B4
:101460007843E318170CDB199C4203D980246402EB
:10147000A44660441C0C12041B04120C00199B1897
:10148000814200D296E000D1FCE04A4601231A4393
:1014900091469B4BEB18002B00DC99E04A46520723
:1014A0000AD00F2249460A40042A05D00431494592
:1014B00092418946524293445A46D20106D55A4631
:1014C000904B1A4080239346DB00EB188E4A9342E0
:1014D00000DD62E64A465946D208490711435A469A
:1014E00089465702514601225B053F0B5B0D0A40BE
:1014F0005AE680205A460003024208D0074206D12D
:1015000007433F0399463F0B4246804B4CE65F46FC
:1015100007433F033F0B221C7C4B45E600F00CFCCD
:10152000031C2030272800DC5EE6083B9E40002399
:10153000B346994665E6504600F0FEFB021C203299
:10154000272A00DC75E657460838874000237BE6EB
:10155000994500D2AFE65A46594654084A46C8074C
:101560005208024303924A46D2079046A9E6002752
:10157000884500D31CE7019F5A46BC46E044B84565
:10158000BF417F42BF19FF18013ABE4206D2BC429A
:101590005FD800D19FE03F1B934609E7B742FAD1DD
:1015A000019B4345F3D9371B934601E79346D4E6A5
:1015B0000293B1E64A468919013A8E4218D99146FA
:1015C000814200D061E7019A9A4200D05DE760E76E
:1015D0004F4F7F1B382F13DD012253461A404FE631
:1015E00001235B42994654E7029308E7039327E7F8
:1015F00088423CD874D0914647E7019B9A4648E719
:101600001F2F44DC434B4A469C465B466544FA40E8
:10161000AB4013434A46AA40151C6A1E95415A46E0
:10162000FA402B43171C5A0709D00F221A40042AEC
:1016300005D01A1D9A429B415B42FF18131C3A02C7
:101640003ED55346012200211A4000270123894636
:10165000AAE502235B429C46019AE3449446E04497
:1016600090459B415B429B19DF193F1BA0E6019F00
:101670004A467C00BC42BF417F42BF19023AC919A9
:1016800001949CE7002B95D1002201929BE75A46DA
:10169000214B5B1BDA40202F27D0204B9C465B461A
:1016A0006544AB4049460B43591E8B411343072207
:1016B00000271A4007D00F2200271A40042AB8D169
:1016C0007A077F023F0BDB081343994601225346FA
:1016D0001A40002368E54145BBD89346002767E6DA
:1016E000019C9C42C3D391466DE70023DAE7802733
:1016F0005B463F031F433F033F0B019A034B53E5F8
:10170000FF030000FFFFFFFEFE070000FF070000D1
:1017100002FCFFFF1E040000E2FBFFFF3E0400008E
:10172000F0B55F4656464D464446F0B4051C061CCF
:10173000080387B099464F00030BCC0F92469B4697
:101740007F0D019467D06C4B9F4236D080205B4662
:1017500040031843C0006B0F1843684B83469C46F8
:1017600000239846EE00674400934B4649461D030C
:10177000C90F5B0052462D0B5B0D894600D16EE010
:101780005D498B4264D080205C4940038C46002137
:101790000543ED00500F0543D20063444846FF184F
:1017A0007B1C9A46009B604002900B430F2B00D994
:1017B000ACE053489B00C3589F465B461D4300D096
:1017C00082E00823009300239B46023300269846BC
:1017D000CBE7029B01934346022B59D101240025FC
:1017E0000026019B1C40444B00212D030A0D1205CD
:1017F0002D0B1543434A1B0515401D436D00E4079F
:101800006D082543301C291C07B03CBC9046994606
:10181000A246AB46F0BD2B434ED05B46002B00D119
:1018200085E1584600F088FA021C2823291C9B1ADF
:10183000161C5846D940083EB0400B1CB540034327
:101840009B462E1C0023304F0093BF1A98468CE70E
:10185000514629432ED10025002202219EE7514600
:10186000294323D0002D00D154E1281C00F064FA54
:10187000031C28215046C91A1A1CC8405146083A70
:10188000914095400A1C05431F480021C31A85E773
:10189000032B00D1C2E1012B00D06DE14446019B36
:1018A00000251C40E4B2002300269DE7002500220D
:1018B000012173E7032171E70423009300239B4672
:1018C00001330026984650E70C230093093B9846C5
:1018D0004BE7802500242D030026074B84E74B4669
:1018E000AB46161C0193884675E7029BAB46161C57
:1018F000019388466FE7C046FF07000001FCFFFF29
:10190000C01E0000FFFF0F800DFCFFFF330C3604EC
:10191000360C9C46331C140C1204120C534398468C
:10192000634653439946634663430193331C4146E0
:101930006343090C4B445B18994505D9802040024C
:101940008146019949440191190C039141460904CA
:10195000090C1B045B1804932B0C9846331C2D04B4
:10196000290C4B43604600934346654658435E430B
:10197000009B4D431B0C9946AE194E448446B5421C
:1019800003D980235B029946CC44350C2B1C039869
:10199000634484460593009B36041B041B0CF31818
:1019A0009C446046039058460504060C280C844667
:1019B0005043351C81466046654344434846000C0D
:1019C0008346724314195C44A24203D98022520216
:1019D00093465D44220CAD184A461204120C2404AE
:1019E0004046A41862464A43714346436046009607
:1019F000464670438046100C84468844E044414586
:101A000005D9802149028C460099614400910198D2
:101A100003998446614499429B415B4299460598EB
:101A2000434684461204120C1B049B1863449C46D4
:101A3000AB4683429B4140460A19CC44A2428941AD
:101A4000E344CC45B6415C46000C804649427642B0
:101A50005B426418334398448C428941AB459B41B7
:101A600049425B4219430D1C009B4544EE18760227
:101A7000E50D2E43B346049B56021E43731E9E4142
:101A80005B46D20D324366021643DB010AD50123C1
:101A9000334076081E435B46DB071E435B465B080C
:101AA0009B465746634BFB18002B5ADD720709D043
:101AB0000F223240042A05D0321DB242B64176428E
:101AC000B344161C5A46D20106D55A465A4B1A4000
:101AD00080239346DB00FB18584A934234DD0124EF
:101AE000029B00251C400026554B7DE680205B466E
:101AF0000003034208D0054206D105432D032D0BF8
:101B00004C46161C4E4B6FE65D4605432D032D0BD0
:101B10004B4B69E6504600F00FF9031C2033272B8E
:101B200000DCA6E65546083885400022ACE6281CB5
:101B300000F002F9021C2032272A00DC75E6083882
:101B400085400026AB467DE65A46F6085207164306
:101B50005A4601245502029A5B052D0B5B0D144079
:101B600042E6384DED1B382D0ADD0124029B00258D
:101B70001C400026002337E6019B5746029391E75D
:101B80001F2D25DC304B321C9C466744BE405B4613
:101B9000BB40371CEA407E1EB74113433B431E1C2B
:101BA0005B46EB401D1C730709D00F233340042B09
:101BB00005D0331DB342B6417642AD191E1C2B022F
:101BC00020D50124029B00251C40002601230BE6A2
:101BD0005A461E4BDB1BDA40131C202D1CD01C4A1E
:101BE00094465A466744BA40171C3E43721E9641BB
:101BF0001E4307230025334007D00F230025334021
:101C0000042BD6D16B076D022D0B0124F6081E4361
:101C1000029B1C400023E7E50027E6E780255B46A2
:101C200001242D031D43019B2D0323401C1C2D0B60
:101C3000034BD9E5FF030000FFFFFFFEFE07000096
:101C4000FF07000002FCFFFF1E040000E2FBFFFF95
:101C50003E0400000B0330B5134C1A0B4B00051C5F
:101C60005B0DC90F0020A34210DD104883420EDC3B
:101C700080200F4C40030243E41A1F2C0ADD0D485C
:101C8000C31ADA40131C48424340581830BD0A4B6F
:101C9000C818FBE7281CE040084CA44663449A405F
:101CA000131C0343EFE7C046FE0300001D040000C1
:101CB0003304000013040000FFFFFF7FEDFBFFFF74
:101CC00038B5041E16D0C50F00D04442201C00F0C9
:101CD00033F8174B1B1A0A2821DC021C211C153271
:101CE00091400A1C0B21081AC4405B052403240BF5
:101CF0005B0D03E000250023002400220021101CBE
:101D000024030A0D1205240B14430A4A1B05144030
:101D10001C436400ED0764082C43211C38BD0B38BC
:101D200084405B052403240B5B0D0022E6E7C046DC
:101D30001E040000FFFF0F801C2101231B0498429A
:101D400001D3000C10391B0A984201D3000A08394C
:101D50001B09984201D30009043902A2105C401803
:101D60007047C046040302020101010100000000A7
:101D70000000000010B5830727D00378002B26D081
:101D8000031C032102E01A78002A1CD001330B4205
:101D9000F9D119680F4A104C8A188A4322420FD190
:101DA000043319680B4A8A188A43224208D1043343
:101DB0001968084A8A188A432242F1D000E00133A8
:101DC0001A78002AFBD1181A10BD031CE1E7002085
:101DD000FAE7C046FFFEFEFE808080800000000023
:101DE000C027090090051000C05C1500F0B31A0070
:101DF000200B2000009F2400E0322900C0C62D00E7
:101E000050973100E06735007038390000093D0017
:101E10004016400080234300C0304600303132334A
:101E20003435363738396162636465660000000016
:101E3000000000000D0A005374617274656420751F
:101E400070004661696C656420746F20496E697426
:101E500069616C697A65205379735469636B2E20CC
:101E6000005B6D735469636B73203A20005D005B07
:101E700043656C6C20566F6C7461676520000000D0
:101E8000AC1200009A1100008012000086110000C0
:101E9000801200008A1200008012000086110000EB
:101EA0009A1100009A1100008A12000086110000A9
:101EB000901100009011000090110000F214000039
:101EC0000C190000EA180000EA180000DE180000F3
:101ED000D2170000D2170000D2180000DE18000050
:101EE000D2170000D2180000D2170000DE18000040
:101EF000D6170000D6170000D6170000EC1A000015
:081F0000C0E1FF7F01000000B9
:101F08000000004005000000E5020000000000009D
:101F1800000000000000000000000000001BB700E7
:04000003000000C138
:00000001FF
